:020000020000FC
:1000000000C00FEF0DBF00E10EBF0FEF07BBA6D181
:100010006CD002D064E1F0C108E002B9089508E0B4
:1000200077FD06C033241B9A33B80000000004C0DB
:100030001B9A000000001B98770F0A9589F708E0CB
:1000400087FD06C033241B9A33B80000000004C0AB
:100050001B9A000000001B98880F0A9589F708E09A
:1000600097FD06C033241B9A33B80000000004C07B
:100070001B9A000000001B98990F0A9589F70895B4
:100080001B9801E4302E01E03A94F1F73A940A9576
:10009000D9F708953090008037FCFCCF03D000934F
:1000A0000080089500D0000008952D3069F12A30B5
:1000B000A9F10091008007FDFCCFF4DF209300C080
:1000C000089501E0E7CF02E0E5CF00E1E3CF04E1EE
:1000D000E1CF08E1DFCF0CE1DDCF0DE0DBCF0CE0BD
:1000E000D9CF0EE0D7CF0CE0D5CF05B7006C05BF58
:1000F00001E0D0DF06E0CEDF0CE0CCDF08E3CADFB2
:100100000895022F0068C6CF0091008007FDFCCF44
:1001100000740068C7DF0093008008952F9320E4E7
:10012000F0DF2F910895FF91EF91EE0FFF1FAF9336
:10013000BF93C8953196002021F04AF0002D17D0CA
:10014000F8CF3196F695E795BF91AF91099400FAF3
:10015000002DC895A02DA03610F0B2E001C0BB273D
:100160003196043879F0053881F015C0E2CF2F932D
:10017000FF93EF93E42DF52D202F0995EF91FF913B
:100180002F9108950C91F3DFD4CF0D91002309F442
:10019000D0CFEDDFFACF5F934F933F932F939F9391
:1001A0008F937F936F932D913D914D915D9106FDBE
:1001B00006C005FD0FC004FD10C003FD19C06AE0B4
:1001C000702F76957770729580E0902F929593704E
:1001D00093951AC062E094E003C060E194E000C02F
:1001E000702F7695777009F478E0729580E00CC0F6
:1001F0006AE0C895802D3196C895702D3196902F64
:1002000095959370939500C0943081F0933051F0A0
:10021000923021F0332716F427FD3FEF442716F4E0
:1002200037FD4FEF552716F447FD5FEF09D06F916B
:100230007F918F919F912F913F914F915F9179CFB6
:10024000CF92BF92AF929F928F92BB18AA2499240B
:10025000882486F4E89455236AF46894772309F097
:10026000705150954095309520950FEF201B300B25
:10027000400B500B882351F055954795379527959E
:10028000B794A794979487948A95B1F77F937295C2
:100290007F700EE20F9345D00C2D30D00F930027C6
:1002A000201730074007500729F07723A1F37A95EC
:1002B00091F707C0772329F07A9519F000E257DF0C
:1002C000F9CF16F40DE253DF0F910E3211F04FDF2C
:1002D000FBCF7F917F70772359F049DF282D392D8F
:1002E0004A2D5B2D11D00C2D09D041DF7A95D1F725
:1002F0008F909F90AF90BF90CF9008950A3010F4E8
:10030000005D0895095A0895CC2400E2889420FDE8
:10031000C60EC79457954795379527950A95B1F717
:100320000895CC2400E2221F331F441F551FCC1C0C
:10033000C61A08F4C60E0A95B1F7221F331F441FD0
:10034000551F509540953095209508950A950000C9
:100350000000000000000000C9F708951D981598DE
:100360000895159A00EFF2DF159803E2EFDF01B16F
:1003700005FB0DECEBDF0895159A0CE1E7DF15980E
:1003800002E0E4DF01B105FB01E0E0DF0895159A2A
:1003900001E0DCDF15980EE1D9DF01B105FB01E0DA
:1003A000D5DF0895159A01E0D1DF159807E0CEDF7B
:1003B00001B105FB07E1CADF08953F9338E02795B7
:1003C00010F4E5DF01C0D8DF3A95C9F73F910895F1
:1003D0003F9338E02795E6DF27F93A95D9F73F9123
:1003E000089509E148E0279508F4302730FB379558
:1003F00037F94A95C1F70895B4DF2CECDEDF24E429
:10040000DCDF0EEE302E03E00F933F9200E3302E40
:1004100006E03A94F1F73A940A95D9F73F900F9194
:100420003A9491F70A9581F74EDE9BDF2CECC5DFFD
:100430002EEBC3DFCDDF822ECBDF322F282D40B352
:1004400048BB809B6395819B6A950F930027020FA1
:10045000007F02955527500F0027030F0770029564
:10046000500F00270F916F7765130BC0E8E8F5E098
:10047000C895902C3196C895A02C3196C895B02C73
:100480003FC05B315AF0E4E8F5E0C895902C319616
:10049000C895A02C3196C895B02C32C059315AF06D
:1004A000E0E8F5E0C895902C3196C895A02C3196DF
:1004B000C895B02C25C058315AF0ECE7F5E0C89546
:1004C000902C3196C895A02C3196C895B02C18C0A8
:1004D00056315AF0E8E7F5E0C895902C3196C8956A
:1004E000A02C3196C895B02C0BC0E4E7F5E0C89578
:1004F000902C3196C895A02C3196C895B02C00C090
:10050000792D8A2D9B2D8BDD792D8A2D9B2D87DDD5
:10051000792D8A2D9B2D83DD792D8A2D9B2D7FDDD5
:10052000792D8A2D9B2D7BDD792D8A2D9B2D77DDD5
:10053000792D8A2D9B2D73DD792D8A2D9B2D6FDDD5
:100540009FDDBFDD05E5402E00E0502EECDD74653B
:100550006D703D8B12044243200D0000DFDD05E588
:10056000402E00E0502EDFDD546D61783DC0164313
:10057000200042CFFF99FF00B266FF00FF0100009C
:0C058000D9F03C0066CC010001FF010036
:00000001FF
