:020000020000FC
:1000000000C00FEF0DBF00E10EBF0FEF07BBA6D181
:100010006CD002D064E1F0C108E002B9089508E0B4
:1000200077FD06C033241B9A33B80000000004C0DB
:100030001B9A000000001B98770F0A9589F708E0CB
:1000400087FD06C033241B9A33B80000000004C0AB
:100050001B9A000000001B98880F0A9589F708E09A
:1000600097FD06C033241B9A33B80000000004C07B
:100070001B9A000000001B98990F0A9589F70895B4
:100080001B9801E4302E01E03A94F1F73A940A9576
:10009000D9F708953090008037FCFCCF03D000934F
:1000A0000080089500D0000008952D3069F12A30B5
:1000B000A9F10091008007FDFCCFF4DF209300C080
:1000C000089501E0E7CF02E0E5CF00E1E3CF04E1EE
:1000D000E1CF08E1DFCF0CE1DDCF0DE0DBCF0CE0BD
:1000E000D9CF0EE0D7CF0CE0D5CF05B7006C05BF58
:1000F00001E0D0DF06E0CEDF0CE0CCDF08E3CADFB2
:100100000895022F0068C6CF0091008007FDFCCF44
:1001100000740068C7DF0093008008952F9320E4E7
:10012000F0DF2F910895FF91EF91EE0FFF1FAF9336
:10013000BF93C8953196002021F04AF0002D17D0CA
:10014000F8CF3196F695E795BF91AF91099400FAF3
:10015000002DC895A02DA03610F0B2E001C0BB273D
:100160003196043879F0053881F015C0E2CF2F932D
:10017000FF93EF93E42DF52D202F0995EF91FF913B
:100180002F9108950C91F3DFD4CF0D91002309F442
:10019000D0CFEDDFFACF5F934F933F932F939F9391
:1001A0008F937F936F932D913D914D915D9106FDBE
:1001B00006C005FD0FC004FD10C003FD19C06AE0B4
:1001C000702F76957770729580E0902F929593704E
:1001D00093951AC062E094E003C060E194E000C02F
:1001E000702F7695777009F478E0729580E00CC0F6
:1001F0006AE0C895802D3196C895702D3196902F64
:1002000095959370939500C0943081F0933051F0A0
:10021000923021F0332716F427FD3FEF442716F4E0
:1002200037FD4FEF552716F447FD5FEF09D06F916B
:100230007F918F919F912F913F914F915F9179CFB6
:10024000CF92BF92AF929F928F92BB18AA2499240B
:10025000882486F4E89455236AF46894772309F097
:10026000705150954095309520950FEF201B300B25
:10027000400B500B882351F055954795379527959E
:10028000B794A794979487948A95B1F77F937295C2
:100290007F700EE20F9345D00C2D30D00F930027C6
:1002A000201730074007500729F07723A1F37A95EC
:1002B00091F707C0772329F07A9519F000E257DF0C
:1002C000F9CF16F40DE253DF0F910E3211F04FDF2C
:1002D000FBCF7F917F70772359F049DF282D392D8F
:1002E0004A2D5B2D11D00C2D09D041DF7A95D1F725
:1002F0008F909F90AF90BF90CF9008950A3010F4E8
:10030000005D0895095A0895CC2400E2889420FDE8
:10031000C60EC79457954795379527950A95B1F717
:100320000895CC2400E2221F331F441F551FCC1C0C
:10033000C61A08F4C60E0A95B1F7221F331F441FD0
:10034000551F509540953095209508950A950000C9
:100350000000000000000000C9F708951D981598DE
:100360000895159A00EFF2DF159803E2EFDF01B16F
:1003700005FB0DECEBDF0895159A0CE1E7DF15980E
:1003800002E0E4DF01B105FB01E0E0DF0895159A2A
:1003900001E0DCDF15980EE1D9DF01B105FB01E0DA
:1003A000D5DF0895159A01E0D1DF159807E0CEDF7B
:1003B00001B105FB07E1CADF08953F9338E02795B7
:1003C00010F4E5DF01C0D8DF3A95C9F73F910895F1
:1003D0003F9338E02795E6DF27F93A95D9F73F9123
:1003E000089509E148E0279508F4302730FB379558
:1003F00037F94A95C1F70895B4DF2CECDEDF24E429
:10040000DCDF0EEE302E03E00F933F9200E3302E40
:1004100006E03A94F1F73A940A95D9F73F900F9194
:100420003A9491F70A9581F74EDE9BDF2CECC5DFFD
:100430002EEBC3DFCDDF822ECBDF322F282D40B352
:1004400048BB809B6395819B6A950F930027020FA1
:10045000007F02955527500F0027030F0770029564
:10046000500F00270F916F7765130BC0E8E9F7E095
:10047000C895902C3196C895A02C3196C895B02C73
:1004800047C056179AF35B315AF0E4E9F7E0C89594
:10049000902C3196C895A02C3196C895B02C38C0B8
:1004A000561722F359315AF0E0E9F7E0C895902C3D
:1004B0003196C895A02C3196C895B02C29C05617F6
:1004C000AAF258315AF0ECE8F7E0C895902C319632
:1004D000C895A02C3196C895B02C1AC0561732F288
:1004E00056315AF0E8E8F7E0C895902C3196C89557
:1004F000A02C3196C895B02C0BC0E4E8F7E0C89565
:10050000902C3196C895A02C3196C895B02C00C07F
:10051000792D8A2D9B2D83DD792D8A2D9B2D7FDDD5
:10052000792D8A2D9B2D7BDD792D8A2D9B2D77DDD5
:10053000792D8A2D9B2D73DD792D8A2D9B2D6FDDD5
:10054000792D8A2D9B2D6BDD792D8A2D9B2D67DDD5
:10055000792D8A2D9B2D63DD792D8A2D9B2D5FDDD5
:10056000792D8A2D9B2D5BDD792D8A2D9B2D57DDD5
:10057000792D8A2D9B2D53DD792D8A2D9B2D4FDDD5
:10058000792D8A2D9B2D4BDD792D8A2D9B2D47DDD5
:10059000792D8A2D9B2D43DD792D8A2D9B2D3FDDD5
:1005A000792D8A2D9B2D3BDD792D8A2D9B2D37DDD5
:1005B000792D8A2D9B2D33DD792D8A2D9B2D2FDDD5
:1005C000792D8A2D9B2D2BDD792D8A2D9B2D27DDD5
:1005D000792D8A2D9B2D23DD792D8A2D9B2D1FDDD5
:1005E000792D8A2D9B2D1BDD792D8A2D9B2D17DDD5
:1005F000792D8A2D9B2D13DD792D8A2D9B2D0FDDD5
:10060000792D8A2D9B2D0BDD792D8A2D9B2D07DDD4
:10061000792D8A2D9B2D03DD792D8A2D9B2DFFDCD5
:10062000792D8A2D9B2DFBDC792D8A2D9B2DF7DCD6
:10063000792D8A2D9B2DF3DC792D8A2D9B2DEFDCD6
:10064000792D8A2D9B2DEBDC792D8A2D9B2DE7DCD6
:10065000792D8A2D9B2DE3DC792D8A2D9B2DDFDCD6
:10066000792D8A2D9B2DDBDC792D8A2D9B2DD7DCD6
:10067000792D8A2D9B2DD3DC792D8A2D9B2DCFDCD6
:10068000792D8A2D9B2DCBDC792D8A2D9B2DC7DCD6
:10069000792D8A2D9B2DC3DC792D8A2D9B2DBFDCD6
:1006A000792D8A2D9B2DBBDC792D8A2D9B2DB7DCD6
:1006B000792D8A2D9B2DB3DC792D8A2D9B2DAFDCD6
:1006C000792D8A2D9B2DABDC792D8A2D9B2DA7DCD6
:1006D000792D8A2D9B2DA3DC792D8A2D9B2D9FDCD6
:1006E000792D8A2D9B2D9BDC792D8A2D9B2D97DCD6
:1006F000792D8A2D9B2D93DC792D8A2D9B2D8FDCD6
:10070000792D8A2D9B2D8BDC792D8A2D9B2D87DCD5
:10071000792D8A2D9B2D83DC792D8A2D9B2D7FDCD5
:10072000792D8A2D9B2D7BDC792D8A2D9B2D77DCD5
:10073000792D8A2D9B2D73DC792D8A2D9B2D6FDCD5
:10074000792D8A2D9B2D6BDC792D8A2D9B2D67DCD5
:1007500097DCB7DC05E5402E00E0502EE4DC746544
:100760006D703D8B12044243200D0000D7DC05E57F
:10077000402E00E0502ED7DC546D61783DC016430A
:1007800020003ACEFF99FF00B266FF00FF01000093
:0C079000F0F0330066CC010001FF010016
:00000001FF
