:020000020000FC
:0200000028C016
:020010001EC010
:1000400000C01A9B02C01A9801C01A9A189501C0E4
:1000500018950FEF0DBF00E10EBF0FEF07BB00E0DB
:1000600000BF03E003BF00E001BB08E009BF00E000
:100070000ABF7894A7D16DD003D0129A6EE1F0C177
:1000800008E002B9089508E077FD06C033241B9A02
:1000900033B80000000004C01B9A000000001B9849
:1000A000770F0A9589F708E087FD06C033241B9A6D
:1000B00033B80000000004C01B9A000000001B9829
:1000C000880F0A9589F708E097FD06C033241B9A2C
:1000D00033B80000000004C01B9A000000001B9809
:1000E000990F0A9589F708951B9801E4302E01E0D5
:1000F0003A94F1F73A940A95D9F708953090008030
:1001000037FCFCCF03D000930080089500D000009E
:1001100008952D3069F12A30A9F10091008007FD82
:10012000FCCFF4DF209300C0089501E0E7CF02E0A8
:10013000E5CF00E1E3CF04E1E1CF08E1DFCF0CE15F
:10014000DDCF0DE0DBCF0CE0D9CF0EE0D7CF0CE058
:10015000D5CF05B7006C05BF01E0D0DF06E0CEDFEC
:100160000CE0CCDF08E3CADF0895022F0068C6CF99
:100170000091008007FDFCCF00740068C7DF00938A
:10018000008008952F9320E4F0DF2F910895FF91D0
:10019000EF91EE0FFF1FAF93BF93C89531960020EC
:1001A00021F04AF0002D17D0F8CF3196F695E7955B
:1001B000BF91AF91099400FA002DC895A02DA036EB
:1001C00010F0B2E001C0BB273196043879F0053851
:1001D00081F015C0E2CF2F93FF93EF93E42DF52D1F
:1001E000202F0995EF91FF912F9108950C91F3DF46
:1001F000D4CF0D91002309F4D0CFEDDFFACF5F9378
:100200004F933F932F939F938F937F936F932D9152
:100210003D914D915D9106FD06C005FD0FC004FDA9
:1002200010C003FD19C06AE0702F76957770729543
:1002300080E0902F9295937093951AC062E094E0BD
:1002400003C060E194E000C0702F7695777009F4E8
:1002500078E0729580E00CC06AE0C895802D3196F8
:10026000C895702D3196902F95959370939500C0F9
:10027000943081F0933051F0923021F0332716F40E
:1002800027FD3FEF442716F437FD4FEF552716F4AF
:1002900047FD5FEF09D06F917F918F919F912F91D3
:1002A0003F914F915F9179CFCF92BF92AF929F9242
:1002B0008F92BB18AA249924882486F4E8945523A5
:1002C0006AF46894772309F0705150954095309501
:1002D00020950FEF201B300B400B500B882351F063
:1002E0005595479537952795B794A79497948794F4
:1002F0008A95B1F77F9372957F700EE20F9345D088
:100300000C2D30D00F9300272017300740075007DF
:1003100029F07723A1F37A9591F707C0772329F085
:100320007A9519F000E257DFF9CF16F40DE253DFAA
:100330000F910E3211F04FDFFBCF7F917F7077234B
:1003400059F049DF282D392D4A2D5B2D11D00C2D68
:1003500009D041DF7A95D1F78F909F90AF90BF90F1
:10036000CF9008950A3010F4005D0895095A089559
:10037000CC2400E2889420FDC60EC794579547957B
:10038000379527950A95B1F70895CC2400E2221FEE
:10039000331F441F551FCC1CC61A08F4C60E0A95FD
:1003A000B1F7221F331F441F551F509540953095BC
:1003B000209508950A95000000000000000000004C
:1003C000C9F708951D9815980895159A00EFF2DF62
:1003D000159803E2EFDF01B105FB0DECEBDF0895AB
:1003E000159A0CE1E7DF159802E0E4DF01B105FBA7
:1003F00001E0E0DF0895159A01E0DCDF15980EE1D9
:10040000D9DF01B105FB01E0D5DF0895159A01E0C0
:10041000D1DF159807E0CEDF01B105FB07E1CADFA8
:1004200008953F9338E0279510F4E5DF01C0D8DF49
:100430003A95C9F73F9108953F9338E02795E6DF55
:1004400027F93A95D9F73F91089509E148E02795B2
:1004500008F4302730FB379537F94A95C1F70895EE
:10046000B4DF2CECDEDF24E4DCDF0EEE302E03E024
:100470000F933F9200E3302E06E03A94F1F73A945E
:100480000A95D9F73F900F913A9491F70A9581F721
:100490004EDE9BDF2CECC5DF2EEBC3DFCDDF822EE3
:1004A000CBDF322F282D40B348BB809B6395819BC7
:1004B0006A950F930027020F007F02955527500F72
:1004C0000027030F07700295500F00270F916F77D9
:1004D00065130FC001E007BF651702F0E2EFF5E01A
:1004E000C895902C3196C895A02C3196C895B02C03
:1004F00051C065179AF35B316AF0EEEEF5E0C895EE
:10050000902C3196C895A02C3196C895B02C00E05F
:1005100007BF40C0651712F359316AF0EAEEF5E003
:10052000C895902C3196C895A02C3196C895B02CC2
:1005300000E007BF2FC065178AF258316AF0E6EE77
:10054000F5E0C895902C3196C895A02C3196C895A9
:10055000B02C00E007BF1EC0651702F256316AF0EA
:10056000E2EEF5E0C895902C3196C895A02C319616
:10057000C895B02C00E007BF0DC0EEEDF5E0C895C2
:10058000902C3196C895A02C3196C895B02C00E0DF
:1005900007BF00C01F931127103431F0792D8A2D29
:1005A0009B2D71DD1395F8CF9FDD1F91BEDD09E80E
:1005B000402E00E0502EEBDD74656D703D8B120413
:1005C0004243200D0000DEDD09E8402E00E0502E01
:1005D000DEDD546D61783DC01643200041CF0F0928
:1005E0000F000B060F000F000000060C0000030FA9
:0605F0000000000F0000F6
:00000001FF
